:100000000C947B000C949A000C949A000C949A0027
:100010000C949A000C949A000C949A000C949A00F8
:100020000C949A000C949A000C949A000C949A00E8
:100030000C949A000C949A000C949A000C949A00D8
:100040000C94D00C0C949A000C949C000C94CA0054
:100050000C949A000C949A000C949A000C949A00B8
:100060000C949A000C949A000C949A000C949A00A8
:100070000C949A000C949A000C9451010C948101F8
:100080000C949A000C949A000C949A00036EDB3640
:100090003D9A9999993DABAAAA2A3E000000803F5B
:1000A000084AD73B3BCE016E84BCBFFDC12F3D6CDF
:1000B00074319ABD56833DDA3D00C77F11BED9E445
:1000C000BB4C3E916BAAAABE000000803F072C7A71
:1000D000A5BA6CC590DA3B9365FC8BBC53F810FD58
:1000E0003C5692834DBD879D3AB63DCBC9BF5BBEA2
:1000F00073DA0FC93F0011241FBECFEFD0E1DEBF7E
:10010000CDBF12E0A0E0B1E0EAEDF4E300E00BBF08
:1001100002C007900D92AC30B107D9F712E0ACE005
:10012000B2E001C01D92A03CB107E1F70E94E60FCA
:100130000C946B1A0C9400001F920F920FB60F9242
:100140000BB60F9211242F938F939F93EF93FF93EE
:100150009BB12CB1E0914E02EF5FEF7180914F02A5
:10016000E81711F482E008C0892F8871E0934E02ED
:10017000F0E0E45DFD4F208380935002FF91EF910A
:100180009F918F912F910F900BBE0F900FBE0F90EC
:100190001F9018951F920F920FB60F920BB60F92E9
:1001A00011248F939F93EF93FF9390914C02809132
:1001B0004D02981761F0E0914D02EF5FEF71E0930F
:1001C0004D02F0E0E45FFD4F80818CB901C055988D
:1001D000FF91EF919F918F910F900BBE0F900FBEEB
:1001E0000F901F90189510929B0028E120939A0081
:1001F00096E090939D0010929800609399001BB830
:100200002AB9909395001092900089B90895909121
:100210004E0280914F02981719F420E031E012C08D
:10022000E0914F02EF5FEF71E0934F02F0E0E45D89
:10023000FD4F308120915002922F80E0AC01430F9E
:10024000511D9A01C9010895282F90914C029F5F7A
:100250009F7180914D029817E1F3E92FF0E0E45F80
:10026000FD4F208390934C02559A0895CF93DF93CE
:10027000EC0103C021960E94240188818823D1F7D4
:10028000DF91CF910895CF93DF93EC0102C00E94DC
:100290002401FE01219684918823C9F7DF91CF9133
:1002A00008951F920F920FB60F920BB60F92112462
:1002B0002F938F939F93EF93FF9390919B002091A7
:1002C0009C00E0919302EF5FEF7180919402E81738
:1002D00011F482E008C0892F8871E0939302F0E066
:1002E000EF58FD4F208380939502FF91EF919F91EE
:1002F0008F912F910F900BBE0F900FBE0F901F90FC
:1003000018951F920F920FB60F920BB60F921124F1
:100310008F939F93EF93FF9390919102809192021C
:10032000981769F0E0919202EF5FEF71E09392020B
:10033000F0E0EF5AFD4F808180939C0005C08091D2
:100340009A008F7D80939A00FF91EF919F918F91FA
:100350000F900BBE0F900FBE0F901F9018959091AD
:10036000930280919402981719F420E031E012C0B2
:10037000E0919402EF5FEF71E0939402F0E0EF58A8
:10038000FD4F308120919502922F80E0AC01430F08
:10039000511D9A01C9010895282F909191029F5FE4
:1003A0009F71809192029817E1F3E92FF0E0EF5AE4
:1003B000FD4F20839093910280919A0080628093F8
:1003C0009A000895CF93DF93EC0103C021960E9419
:1003D000CC0188818823D1F7DF91CF910895CF9305
:1003E000DF93EC0102C00E94CC01FE0121968491B2
:1003F0008823C9F7DF91CF910895EF92FF920F9371
:100400001F93CF93DF938C017B01C0E0D0E006C047
:10041000F80181918F010E94CC012196CE15DF0554
:10042000BCF3DF91CF911F910F91FF90EF90089552
:10043000EF92FF920F931F93CF93DF938C017B0179
:10044000C0E0D0E006C0F80181918F010E94240134
:100450002196CE15DF05BCF3DF91CF911F910F914F
:10046000FF90EF900895FC018091000190910101AF
:10047000A0910201B091030180839183A283B38391
:100480008091960290919702A0919802B091990262
:10049000FB0180839183A283B38380919A02909120
:1004A0009B02A0919C02B0919D02FA0180839183EE
:1004B000A283B38380919E0290919F02A091A0029B
:1004C000B091A102F90180839183A283B38308953F
:1004D0002F923F924F925F926F927F928F929F9254
:1004E000AF92BF92CF92DF92EF92FF920F931F9342
:1004F000DF93CF93CDB7DEB76E970FB6F894DEBF1C
:100500000FBECDBF9A8F898F7C8F6B8F5E8F4D8F83
:100510002091960230919702409198025091990251
:10052000E0909A02F0909B0200919C0210919D0233
:10053000A0900001B0900101C0900201D090030191
:1005400020909E0230909F024090A0025090A10205
:100550006090000170900101809002019090030171
:100560008091000190910101A0910201B0910301DD
:100570008D8B9E8BAF8BB88F809196029091970256
:10058000A0919802B0919902898B9A8BAB8BBC8B0E
:100590008091960290919702A0919802B091990251
:1005A0008D879E87AF87B88BCA01B9010E94E71279
:1005B000A80197010E9414137B018C01C601B501AB
:1005C00020E030E040E050EC0E941413A2019101C1
:1005D0000E9414139B01AC01C801B7010E94E712ED
:1005E0005B016C01C401B301A40193010E94E712F5
:1005F0002D893E894F89588D0E9414137B018C01EF
:1006000069897A898B899C899B01AC010E94E712D8
:100610002D853E854F8558890E9414139B01AC019E
:10062000C801B7010E94E71220E030E040E85FE334
:100630000E94B6129B01AC01C601B5010E94EE17E3
:10064000AD8DBE8D6D937D938D939C93139720916B
:100650009602309197024091980250919902A09091
:100660009E02B0909F02C090A002D090A102E090A4
:100670000001F090010100910201109103016090CE
:100680009A0270909B0280909C0290909D02CA01F9
:10069000B9010E94E712A60195010E9414135B01A3
:1006A0006C01C801B701A80197010E94E712A401DB
:1006B00093010E9414139B01AC01C601B5010E9475
:1006C000E7120E94C8179058EB8DFC8D60837183F0
:1006D0008283938320919A0230919B0240919C02E5
:1006E00050919D02E0909E02F0909F020091A00226
:1006F0001091A102A0900001B0900101C0900201F0
:10070000D09003012090960230909702409098027A
:100710005090990260900001709001018090020158
:10072000909003018091000190910101A09102013C
:10073000B091030189879A87AB87BC8780919E021D
:1007400090919F02A091A002B091A1028D839E83FF
:10075000AF83B88780919E0290919F02A091A002E2
:10076000B091A10289839A83AB83BC83CA01B9018A
:100770000E94E712A80197010E9414137B018C01CB
:10078000C601B50120E030E040E050EC0E941413B7
:10079000A20191010E9414139B01AC01C801B70191
:1007A0000E94E7125B016C01C401B301A401930133
:1007B0000E94E71229853A854B855C850E941413B7
:1007C0007B018C016D817E818F8198859B01AC01BD
:1007D0000E94E71229813A814B815C810E941413A7
:1007E0009B01AC01C801B7010E94E71220E030E094
:1007F00040E85FE30E94B6129B01AC01C601B5015F
:100800000E94EE17A98DBA8D6D937D938D939C9365
:1008100013976E960FB6F894DEBF0FBECDBFCF9183
:10082000DF911F910F91FF90EF90DF90CF90BF90DD
:10083000AF909F908F907F906F905F904F903F9080
:100840002F9008952F923F924F925F926F927F92D6
:100850008F929F92AF92BF92CF92DF92EF92FF92D0
:100860000F931F93DF93CF93CDB7DEB7CC54D04017
:100870000FB6F894DEBF0FBECDBF6DA37EA38FA3CE
:1008800098A729A73AA74BA75CA7EDA6FEA60FA796
:1008900018ABA5966CAC7DAC8EAC9FACA597A99619
:1008A0002CAC3DAC4EAC5FACA997C601B50120E0C5
:1008B00030E040E050E00E94BA148823A9F4C4015B
:1008C000B30120E030E040E050E00E94BA148823F9
:1008D00059F4C201B10120E030E040E050E00E9454
:1008E000BA14882309F40CC2C601B501A60195010A
:1008F0000E9414137B018C01C401B301A401930174
:100900000E9414139B01AC01C801B7010E94E712B9
:100910007B018C01C201B101A20191010E9414135B
:100920009B01AC01C801B7010E94E7120E94B519F2
:100930007B018C01C601B501A80197010E940E142C
:1009400069AB7AAB8BAB9CABC401B301A801970137
:100950000E940E146DAB7EAB8FAB98AFC201B1019C
:10096000A80197010E940E1469AF7AAF8BAF9CAFBC
:1009700060919602709197028091980290919902ED
:1009800020919E0230919F024091A0025091A102BD
:10099000A0900001B0900101C0900201D09003012D
:1009A00060909A0270909B0280909C0290909D02B1
:1009B0000E9414137B018C01C601B501A4019301AF
:1009C0000E9414139B01AC01C801B7010E94B6122A
:1009D00021966CAF7DAF8EAF9FAF219760910001E4
:1009E0007091010180910201909103012091960282
:1009F000309197024091980250919902A0909A02EA
:100A0000B0909B02C0909C02D0909D0260909E028C
:100A100070909F028090A0029090A1020E941413F7
:100A20007B018C01C601B501A40193010E9414133E
:100A30009B01AC01C801B7010E94E7121B012C0108
:100A40006091000170910101809102019091030178
:100A50002091000130910101409102015091030168
:100A6000A0909E02B0909F02C090A002D090A102E0
:100A700060909E0270909F028090A0029090A102D0
:100A80000E94141320E030E040E05FE30E94B612C1
:100A90007B018C01C601B501A40193010E941413CE
:100AA0009B01AC01C801B7010E94E7125B016C0118
:100AB0006DA97EA98FA998ADA60195010E94141376
:100AC0007B018C0169AD7AAD8BAD9CADA20191012A
:100AD0000E9414139B01AC01C801B7010E94B61219
:100AE00025966CAF7DAF8EAF9FAF259769AD7AAD80
:100AF0008BAD9CAD21962CAD3DAD4EAD5FAD21973C
:100B00000E9414137B018C0169A97AA98BA99CA965
:100B1000A60195010E9414139B01AC01C801B70105
:100B20000E94B61229966CAF7DAF8EAF9FAF29970A
:100B300069A97AA98BA99CA9A20191010E94141309
:100B40007B018C016DA97EA98FA998AD21962CAD52
:100B50003DAD4EAD5FAD21970E9414139B01AC01DA
:100B6000C801B7010E94B6121B012C01E090A2023D
:100B7000F090A3020091A4021091A50225966CADFD
:100B80007DAD8EAD9FAD25972DEC3CEC4CE45EE346
:100B90000E9414132AE83BE446E85CE30E94141325
:100BA0009B01AC01C801B7010E94E7126093A20249
:100BB0007093A3028093A4029093A502E090A602F2
:100BC000F090A7020091A8021091A90229966CAD9D
:100BD0007DAD8EAD9FAD29972DEC3CEC4CE45EE3F2
:100BE0000E9414132AE83BE446E85CE30E941413D5
:100BF0009B01AC01C801B7010E94E7126093A602F5
:100C00007093A7028093A8029093A902E090AA0291
:100C1000F090AB020091AC021091AD02C201B101A3
:100C20002DEC3CEC4CE45EE30E9414132AE83BE418
:100C300046E85CE30E9414139B01AC01C801B701B4
:100C40000E94E7126093AA027093AB028093AC02F9
:100C50009093AD022091A2023091A3024091A40290
:100C60005091A5026DA17EA18FA198A50E94E712C7
:100C70003B014C012091A6023091A7024091A802AD
:100C80005091A90269A57AA58BA59CA50E94E7129F
:100C90005B016C012091AA023091AB024091AC0241
:100CA0005091AD026DA57EA58FA598A90E94E7126F
:100CB0007B018C01C401B30125962CAD3DAD4EAD39
:100CC0005FAD25970E94E7126DA37EA38FA398A71F
:100CD000C601B50129962CAD3DAD4EAD5FAD29974E
:100CE0000E94E71269A77AA78BA79CA7C801B70142
:100CF000A20191010E94E7126DA77EA78FA798AB72
:100D00006DA17EA18FA198A52AE83BE446E05CE3B3
:100D10000E9414132D966CAF7DAF8EAF9FAF2D97B1
:100D200069A57AA58BA59CA52AE83BE446E05CE38F
:100D30000E9414131B012C016DA57EA58FA598A9F7
:100D40002AE83BE446E05CE30E9414133B014C01BB
:100D5000E0900001F0900101009102011091030167
:100D6000E986FA860B871C878091960290919702FC
:100D7000A0919802B09199028D839E83AF83B8872A
:100D8000E0909A02F0909B0200919C0210919D02CB
:100D9000E982FA820B831C8380910001909101010A
:100DA000A0910201B091030189A39AA3ABA3BCA3B4
:100DB000A0909E02B0909F02C090A002D090A1028D
:100DC0006D817E818F81988590582D962CAD3DAD9B
:100DD0004EAD5FAD2D970E9414137B018C0169818C
:100DE0007A818B819C81A20191010E9414139B0145
:100DF000AC01C801B7010E94B6127B018C01C6018B
:100E0000B501A40193010E9414139B01AC01C80118
:100E1000B7010E94B6129B01AC0169A17AA18BA116
:100E20009CA10E94E71260930001709301018093DE
:100E3000020190930301E0909602F09097020091D6
:100E4000980210919902ED8EFE8E0F8F18A3A0903C
:100E50009E02B0909F02C090A002D090A10269852E
:100E60007A858B859C852D962CAD3DAD4EAD5FADC5
:100E70002D970E9414137B018C0169817A818B81EB
:100E80009C81A40193010E9414139B01AC01C80131
:100E9000B7010E94E7127B018C01C601B501A201D6
:100EA00091010E9414139B01AC01C801B7010E947B
:100EB000B6129B01AC016D8D7E8D8F8D98A10E9425
:100EC000E712609396027093970280939802909332
:100ED000990280919A0290919B02A0919C02B091FC
:100EE0009D02898F9A8FAB8FBC8FA0909E02B0908D
:100EF0009F02C090A002D090A10269857A858B855F
:100F00009C85A20191010E9414137B018C016D81CB
:100F10007E818F819885A40193010E9414139B0107
:100F2000AC01C801B7010E94B6127B018C01C60159
:100F3000B5012D962CAD3DAD4EAD5FAD2D970E9408
:100F400014139B01AC01C801B7010E94E7129B0179
:100F5000AC01698D7A8D8B8D9C8D0E94E712609318
:100F60009A0270939B0280939C0290939D02A090A2
:100F70009E02B0909F02C090A002D090A10269850D
:100F80007A858B859C85A40193010E9414137B01B3
:100F90008C016D817E818F819885A20191010E94D3
:100FA00014139B01AC01C801B7010E94E7127B0139
:100FB0008C0169817A818B819C812D962CAD3DAD10
:100FC0004EAD5FAD2D970E9414139B01AC01C8017B
:100FD000B7010E94B6129B01AC01C601B5010E9487
:100FE000E71260939E0270939F028093A0029093F9
:100FF000A102609100017091010180910201909124
:1010000003012091000130910101409102015091B2
:101010000301A0909602B0909702C0909802D090E1
:10102000990260909602709097028090980290903A
:10103000990220909A0230909B0240909C0250901E
:101040009D02E0909A02F0909B0200919C02109108
:101050009D02ED8AFE8A0F8B188FE0909E02F09021
:101060009F020091A0021091A102E98AFA8A0B8BDB
:101070001C8BE0909E02F0909F020091A0021091C4
:10108000A102ED86FE860F87188B0E9414137B0148
:101090008C01C601B501A40193010E9414139B01A8
:1010A000AC01C801B7010E94E7127B018C01C201AB
:1010B000B1012D893E894F89588D0E9414139B01DF
:1010C000AC01C801B7010E94E7127B018C0169895C
:1010D0007A898B899C892D853E854F8558890E9408
:1010E00014139B01AC01C801B7010E94E7120E94D2
:1010F000B5197B018C016091000170910101809113
:10110000020190910301A80197010E940E146093BF
:10111000000170930101809302019093030160919B
:101120009602709197028091980290919902A8017D
:1011300097010E940E146093960270939702809319
:1011400098029093990260919A0270919B0280910B
:101150009C0290919D02A80197010E940E14609339
:101160009A0270939B0280939C0290939D026091DF
:101170009E0270919F028091A0029091A102A8010D
:1011800097010E940E1460939E0270939F028093B9
:10119000A0029093A102C45BDF4F0FB6F894DEBFAC
:1011A0000FBECDBFCF91DF911F910F91FF90EF90B8
:1011B000DF90CF90BF90AF909F908F907F906F9077
:1011C0005F904F903F902F900895EF92FF920F9372
:1011D0001F93CF93DF93182FE62E042FF52E66234F
:1011E000A1F080ED0E94FE0C812F0E94570D802FF0
:1011F0009F2D9C01E90110E004C089910E94570DC8
:101200001F5F1E15D0F30E944F0DDF91CF911F91EC
:101210000F91FF90EF900895DF93CF930F92CDB78A
:10122000DEB7698361E0AE014F5F5F4F0E94E50862
:101230000F90CF91DF910895DF92EF92FF920F937D
:101240001F93CF93DF93182FD62E042FF52E6623EE
:1012500011F410E02AC080ED0E94FE0C812F0E9444
:10126000570D83E08A95F1F781ED0E94FE0C802FE7
:101270009F2D9C018901C0E0D0E0ED2CFF24089453
:10128000E108F1080DC0CE15DF0519F40E94730DB9
:1012900002C00E94690DF801808321960F5F1F4FE5
:1012A000CD1588F31D2D0E944F0D812FDF91CF9119
:1012B0001F910F91FF90EF90DF9008956F927F92B2
:1012C0008F929F92AF92BF92CF92DF92EF92FF9256
:1012D0000F931F936C015B014A0139018BE36EE0B0
:1012E00042EB52E00E941C094091B2022091B302ED
:1012F000942F80E030E0822B932BF6019183808342
:101300004091B4022091B502942F80E030E0822B0E
:10131000932BF501918380834091B6022091B7020F
:10132000942F80E030E0822B932BF4019183808313
:101330004091BA022091BB02942F80E030E0822BD2
:10134000932BF301918380834091BC022091BD02D5
:10135000942F80E030E0822B932BF80191838083DF
:101360004091BE022091BF02942F80E030E0822B9A
:10137000932BF701918380831F910F91FF90EF9042
:10138000DF90CF90BF90AF909F908F907F906F90A5
:1013900008952F923F924F925F926F927F928F9219
:1013A0009F92AF92BF92CF92DF92EF92FF920F93F4
:1013B0001F93DF93CF93CDB7DEB72C970FB6F8947A
:1013C000DEBF0FBECDBF6C015B014A0139012801B0
:1013D00017011A8219821C821B821E821D821886A6
:1013E0001F821A8619861C861B86CE010196BE01B5
:1013F0006D5F7F4FAE014B5F5F4F9E01295F3F4F97
:101400008E01075F1F4FEBE0EE2EF12CEC0EFD1E60
:101410000E945E0969817A81882777FD8095982FDF
:101420000E94EA1420E030E040E858E30E941413E0
:10143000F60160837183828393836B817C8188272B
:1014400077FD8095982F0E94EA1420E030E040E874
:1014500058E30E941413F5016083718382839383A0
:101460006D817E81882777FD8095982F0E94EA14F0
:1014700020E030E040E858E30E941413F401608358
:101480007183828393836F817885665D7F4F882720
:1014900077FD8095982F0E94EA1423E333E343E815
:1014A00051E40E940E14F30160837183828393835D
:1014B00069857A8569507040882777FD8095982FD7
:1014C0000E94EA1423E333E343E851E40E940E143C
:1014D000F20160837183828393836B857C85635E75
:1014E0007F4F882777FD8095982F0E94EA1423E389
:1014F00033E343E851E40E940E14F10160837183E9
:10150000828393832C960FB6F894DEBF0FBECDBFB7
:10151000CF91DF911F910F91FF90EF90DF90CF90CF
:10152000BF90AF909F908F907F906F905F904F9003
:101530003F902F900895AB0161E00E941C0908952F
:10154000FF920F931F93DF93CF930F92CDB7DEB728
:10155000F82E062F142FBE016F5F7F4F0E949B0A4B
:101560002981112351F081E090E002C0880F991F7A
:101570000A95E2F7622F682B0AC081E090E002C072
:10158000880F991F0A95E2F7682F60956223698397
:101590008F2D0E940C090F90CF91DF911F910F9119
:1015A000FF9008958BE666E041E00E94A00A08954E
:1015B0008BE666E040E00E94A00A0895EF92FF9259
:1015C0000F931F93DF93CF930F92CDB7DEB7E82E23
:1015D000062F142FF22E442379F11982BE016F5F7A
:1015E0007F4F0E949B0A882339F1212F30E0402F42
:1015F00050E04F5F5F4F421B530B81E090E002C011
:10160000880F991F1A95E2F70197042E02C0880FE0
:10161000991F0A94E2F72F2D30E002C0220F331FEA
:101620004A95E2F7682F6095498164238223682BED
:1016300069838E2D0E940C090F90CF91DF911F912D
:101640000F91FF90EF9008950E94F80C83E08A9527
:10165000F1F788EA91E60197F1F70E94D80A84EC45
:1016600099E00197F1F78BE662E043E021E00E9408
:10167000DE0A8AE162E043E023E00E94DE0A89E1BB
:1016800064E00E940C098BE164E042E023E00E94E8
:10169000DE0A8CE164E042E020E00E94DE0A089568
:1016A000FF920F931F93DF93CF930F92CDB7DEB7C7
:1016B000F62E8A01BE016F5F7F4F0E949B0A21E0D8
:1016C00030E002C0220F331FFA94E2F7998192238F
:1016D000F80190830F90CF91DF911F910F91FF90B0
:1016E0000895EF92FF920F931F93DF93CF930F9282
:1016F000CDB7DEB7062F142F7901442311F460E033
:1017000029C0BE016F5F7F4F0E949B0A682F88230C
:1017100009F1812F90E0402F50E04F5F5F4F481B51
:10172000590B21E030E002C0220F331F1A95E2F777
:1017300021503040042E02C0220F331F0A94E2F7DA
:101740008981822390E002C0959587954A95E2F7BA
:10175000F7018083862F0F90CF91DF911F910F911A
:10176000FF90EF90089585E766E046E022EB32E0D7
:101770000E94710B8091B20290E0843309F491E0F1
:10178000892F08952F923F924F925F926F927F928E
:101790008F929F92AF92BF92CF92DF92EF92FF9281
:1017A0000F931F93DF93CF9300D000D000D0CDB71D
:1017B000DEB713E08AE360E042EB52E00E94500B98
:1017C0008091B202882321F4812F8A95F1F7F2CF1C
:1017D0008BE36EE042EB52E00E941C09D090B20213
:1017E000C090B3029090B4028090B5027090B6029F
:1017F0006090B7024091BA022091BB02B090BC0247
:101800000091BD02A090BE02E090BF028DB79EB7CE
:1018100008970FB6F8949EBF0FBE8DBFEDB7FEB709
:101820003196FE83ED83742F60E030E0622B732BE2
:10183000665D7F4F882777FD8095982F0E94EA1478
:1018400023E333E343E851E40E940E1424E33AEF28
:101850004EE85CE30E94141369837A838B839C8334
:101860007B2D60E010E0602B712B69507040882761
:1018700077FD8095982F0E94EA1423E333E343E831
:1018800051E40E940E1424E33AEF4EE85CE30E9418
:1018900014131B012C017A2D60E0FF246E297F298F
:1018A000635E7F4F882777FD8095982F0E94EA140A
:1018B00023E333E343E851E40E940E1424E33AEFB8
:1018C0004EE85CE30E9414137B018C017D2D60E0E7
:1018D000DD246C297D29882777FD8095982F0E942B
:1018E000EA1420E030E040E858E30E9414135B0162
:1018F0006C01792D60E0992468297929882777FD82
:101900008095982F0E94EA1420E030E040E858E3E8
:101910000E941413ED81FE8160837183828393831F
:10192000772D60E0772466297729882777FD8095D1
:10193000982F0E94EA1420E030E040E858E30E942B
:101940001413ED81FE816483758386839783698197
:101950007A818B819C81A20191010E9422048DB722
:101960009EB708960FB6F8949EBF0FBE8DBF269601
:101970000FB6F894DEBF0FBECDBFCF91DF911F91A0
:101980000F91FF90EF90DF90CF90BF90AF909F901E
:101990008F907F906F905F904F903F902F90089521
:1019A0001F920F920FB60F920BB60F9211242F9326
:1019B0003F934F935F936F937F938F939F93AF93D7
:1019C000BF93EF93FF930E94C20BFF91EF91BF91E2
:1019D000AF919F918F917F916F915F914F913F91C7
:1019E0002F910F900BBE0F900FBE0F901F90189568
:1019F000109271008CE0809370000895982F84EA13
:101A0000809374008091740087FFFCCF80917100F7
:101A1000887F883021F0803111F081E00895909323
:101A2000730084E8809374008091740087FFFCCF7A
:101A300090917100987F983111F480E0089580E0D2
:101A4000903409F081E00895982F44EA34E824E9BD
:101A5000409374008091740087FFFCCF80917100E7
:101A6000887F883011F0803199F79093730030931C
:101A700074008091740087FFFCCF80917100887F93
:101A8000803211F0883539F420937400809174000D
:101A900084FDFCCFDDCF08950E94FE0C089584E9FB
:101AA000809374008091740084FDFCCF089580932E
:101AB000730084E8809374008091740087FFFCCFEA
:101AC0008091710090E0887F883209F091E0892F41
:101AD000089584EC809374008091740087FFFCCF9C
:101AE00080917300089584E880937400809174005D
:101AF00087FFFCCF8091730008956F927F928F9241
:101B00009F92AF92BF92CF92DF92EF92FF920F938C
:101B10001F93DF93CF9300D000D000D0CDB7DEB7B6
:101B20005C013B014A018CE30E94240D83E00E948A
:101B3000570D0E944F0D8DE30E94240D7E010894E5
:101B4000E11CF11C870187E0C82ED12CCC0EDD1ED4
:101B5000802F8E19853021F40E94730D8E8304C06E
:101B60000E94690DF80180830F5F1F4F0C151D0542
:101B700079F70E944F0D998180E02A8130E0822B15
:101B8000932BF501918380839B8180E02C8130E051
:101B9000822B932BF401918380839D8180E02E81A1
:101BA00030E0822B932BF3019183808326960FB62E
:101BB000F894DEBF0FBECDBFCF91DF911F910F9183
:101BC000FF90EF90DF90CF90BF90AF909F908F905D
:101BD0007F906F9008952F923F924F925F926F92F5
:101BE0007F928F929F92AF92BF92CF92DF92EF92AD
:101BF000FF920F931F93DF93CF93CDB7DEB72C9750
:101C00000FB6F894DEBF0FBECDBF98878F837A875B
:101C100069875C874B871A8219821C821B821E820D
:101C20001D82CE010196BE016D5F7F4FAE014B5FFD
:101C30005F4F0E947D0D69817A81882777FD8095AD
:101C4000982F0E94EA1426E636E647EC52E40E94FA
:101C5000E7121B012C016B817C81882777FD809521
:101C6000982F0E94EA1420E030E04AE153E40E94F9
:101C7000E7123B014C016D817E81882777FD8095BD
:101C8000982F0E94EA142AE939E945EB51E40E94B1
:101C9000E7125B016C01C201B10123E637EB43E7B8
:101CA0005FE30E9414137B018C01C401B3012AEB92
:101CB00031E640E05BE30E9414139B01AC01C801D4
:101CC000B7010E94E7127B018C01C601B50122E138
:101CD00032ED44E65CE30E9414139B01AC01C801A1
:101CE000B7010E94E712EF81F885608371838283D8
:101CF0009383C201B1012AEB31E640E05BE30E942D
:101D000014137B018C01C401B30121EC30E042E6E5
:101D10005FE30E9414139B01AC01C801B7010E944C
:101D2000E7127B018C01C601B5012EEC3DE149EFC4
:101D30005BE30E9414139B01AC01C801B7010E9430
:101D4000E712E985FA856083718382839383C201F8
:101D5000B10122E132ED44E65CE30E9414137B0101
:101D60008C01C401B3012EEC3DE149EF5BE30E941D
:101D700014139B01AC01C801B7010E94E7127B015B
:101D80008C01C601B5012EE330ED4EE75FE30E9402
:101D900014139B01AC01C801B7010E94E712EB8547
:101DA000FC8560837183828393832C960FB6F894AD
:101DB000DEBF0FBECDBFCF91DF911F910F91FF907E
:101DC000EF90DF90CF90BF90AF909F908F907F90DB
:101DD0006F905F904F903F902F9008950E94F80C65
:101DE00083E08A95F1F783E393E3ABE8B0E4809373
:101DF000AE029093AF02A093B002B093B1028CE315
:101E00000E94240D81E00E94570D80EE0E94570D24
:101E10000E944F0D8CE30E94240D82E00E94570D1A
:101E200080E00E94570D0E944F0D08958F929F925F
:101E3000AF92BF92CF92DF92EF92FF920F931F93D8
:101E4000DF93CF93CDB7DEB7FC0180E090E0A0E058
:101E5000B0E0808B918BA28BB38B80869186A2861B
:101E6000B386C486D586E686F786048315832683E3
:101E700037834083518362837383CF01CF91DF9196
:101E80001F910F91FF90EF90DF90CF90BF90AF9098
:101E90009F908F9008954F925F926F927F928F9252
:101EA0009F92AF92BF92CF92DF92EF92FF920F93E9
:101EB0001F93DF93CF9300D000D0CDB7DEB76C0176
:101EC00049835A836B837C83FC0164857585868591
:101ED000978520813181428153810E94E7124B0115
:101EE0005C01F60164877587868797872481358131
:101EF000468157810E94E7129B01AC01C501B401E4
:101F00000E940E147B018C01F601608B718B828B19
:101F1000938B408451846284738469817A818B813C
:101F20009C81A30192010E94B6129B01AC01C801E1
:101F3000B7010E9414139B01AC01C301B2010E94BE
:101F4000E712F601608771878287938760E070E00F
:101F500080E89FE3A80197010E94B6129B01AC01A3
:101F6000C501B4010E941413F60164877587868742
:101F700097870F900F900F900F90CF91DF911F9147
:101F80000F91FF90EF90DF90CF90BF90AF909F9018
:101F90008F907F906F905F904F90089580E487B905
:101FA00087E886B910926100089597B1982B97B988
:101FB00087EC86B984EC99E00197F1F7349BFECF6A
:101FC00080E487B924B135B1C90108952F923F92B9
:101FD0004F925F926F927F928F929F92AF92BF9239
:101FE000CF92DF92EF92FF920F931F93DF93CF93E5
:101FF000CDB7DEB7C658D1400FB6F894DEBF0FBEDE
:10200000CDBFFE01E95BFF4F20E030E00F2EFFE681
:10201000EF2EF2E1FF2EF3E80F2FFAE31F2FF02D42
:102020000F2EFAE06F2EF7ED7F2EF3EA8F2EFBE3F3
:102030009F2EF02D40E050E060E87FE380E090E0EC
:10204000A0E0B0E00F2EFDECAF2EFCECBF2EFCE4C8
:10205000CF2EFDE3DF2EF02D27303105A4F4E082F2
:10206000F182028313836482758286829782448719
:1020700055876687778780879187A287B387808B0C
:10208000918BA28BB38BE082F18202831383A482B3
:10209000B582C682D78244875587668777878087CF
:1020A0009187A287B387808B918BA28BB38B2F5F95
:1020B0003F4F74962031310579F688E090E068E072
:1020C00070E00E94F30078940E94EE0E0E94240BB0
:1020D00080E487B987E886B9109261008FEF9FE7A7
:1020E0009EA38DA307E2602E712C6C0E7D1E17E45B
:1020F000212E312C2C0E3D1EBEEF4B2EBFE75B2E4A
:10210000A5E28A2E912C8C0E9D1EF2E2AF2EB12CF0
:10211000A80CB91CCE010196BE016B5F7F4FAE01CA
:10212000475F5F4F0E94EB0DCE010D96BE016F5EC3
:102130007F4FAE014B5E5F4F9E01275E3F4F8E018A
:10214000035E1F4FE1E2EE2EF12CEC0EFD1E0E940D
:10215000C9096301730110E0812F0E94D50FF701B7
:10216000819391937F011F5F1730B1F769817A8165
:102170008B819C8120E030E048EC52E40E941413F3
:102180000E9448157EAB6DAB6D817E818F819885F5
:1021900020E030E048EC52E40E9414130E944815FD
:1021A00078AF6FAB69857A858B859C8520E030E0C0
:1021B00048EC52E40E9414130E9448157AAF69AFAC
:1021C0006D857E858F85988920E030E44CE156E46A
:1021D0000E9414130E9448157CAF6BAF69897A89FD
:1021E0008B899C8920E030E44CE156E40E94141372
:1021F0000E9448157EAF6DAF6D897E898F89988D5D
:1022000020E030E44CE156E40E9414130E9448158B
:1022100021967FAF6EAF2197698D7A8D8B8D9C8DC6
:1022200020E030E048EC52E40E9414130E9448156C
:1022300023967FAF6EAF23976D8D7E8D8F8D98A186
:1022400020E030E048EC52E40E9414130E9448154C
:1022500025967FAF6EAF259769A17AA18BA19CA12E
:1022600020E030E048EC52E40E9414130E9448152C
:1022700027967FAF6EAF27978101F601608171814C
:10228000882777FD8095982F0E94EA14AB01BC0146
:10229000C8010E944B0FF801608571858285938586
:1022A0000E944815F601718360836F5F7F4719F4C0
:1022B000F6015182408282E090E0C80ED91E0C5E89
:1022C0001F4FCA14DB04C9F6C40162E270E00E9429
:1022D000180220CFA0E0B0E0E0E7F1E10C94911704
:1022E000DC012B01FA019C91923008F439C1EB0119
:1022F0008881823008F433C1943069F4843009F065
:102300002FC111969C9111978981981709F428C1C2
:10231000A4E0B1E025C1843009F421C18230A9F4E0
:10232000923009F01DC19A01AD0188E0EA010990DF
:10233000AE01E90109929E018150C1F7E201898154
:1023400011969C918923818308C1923009F407C1B9
:1023500012962D903C901397EB018A819B811496E5
:10236000AD90BD90CD90DC901797EC80FD800E81F4
:102370001F819101281B390BB90137FF04C0662763
:102380007727621B730B603271050CF061C0121667
:1023900013066CF537014801062E04C09694879405
:1023A000779467940A94D2F721E030E040E050E05F
:1023B00004C0220F331F441F551F6A95D2F72150C6
:1023C0003040404050402E213F21402351232115D1
:1023D00031054105510521F021E030E040E050E0B9
:1023E00079018A01E628F728082919293CC0232BFE
:1023F000D1F1260E371E35014601062E04C09694F3
:102400008794779467940A94D2F721E030E040E013
:1024100050E004C0220F331F441F551F6A95D2F7A6
:1024200021503040404050402A213B214C215D2129
:10243000211531054105510521F021E030E040E052
:1024400050E059016A01A628B728C828D9280BC02E
:10245000821593052CF01C01AA24BB24650103C03E
:10246000EE24FF24870111969C91D20111968C9144
:10247000981709F445C0992339F0A80197012A1942
:102480003B094C095D0906C0A60195012E193F09BB
:10249000400B510B57FD08C01182338222822483E6
:1024A0003583468357831DC081E081833382228236
:1024B00088279927DC01821B930BA40BB50B84831F
:1024C0009583A683B7830DC0220F331F441F551F6A
:1024D0002483358346835783828193810197938335
:1024E00082832481358146815781DA01C9010197B0
:1024F000A109B1098F5F9F4FAF4FBF4328F30BC0B6
:10250000918333822282EA0CFB1C0C1D1D1DE48288
:10251000F5820683178383E0808324813581468199
:10252000578157FF1AC0C901AA2797FDA095BA2F56
:1025300081709070A070B07056954795379527952B
:10254000822B932BA42BB52B84839583A683B783EF
:1025500082819381019693838283DF0101C0D2013E
:10256000CD01CDB7DEB7E2E10C94AD17A0E2B0E04B
:10257000ECEBF2E10C949D1769837A838B839C8347
:102580002D833E834F835887E9E0EE2EF12CEC0E2D
:10259000FD1ECE010196B7010E94C0168E010F5E8E
:1025A0001F4FCE010596B8010E94C0168A8991E09E
:1025B00089278A8BC701B801AE01475E5F4F0E9431
:1025C0006A110E94EB15A096E6E00C94B917A0E200
:1025D000B0E0EDEEF2E10C949D1769837A838B8372
:1025E0009C832D833E834F835887F9E0EF2EF12C97
:1025F000EC0EFD1ECE010196B7010E94C0168E01A1
:102600000F5E1F4FCE010596B8010E94C016C7018C
:10261000B801AE01475E5F4F0E946A110E94EB1540
:10262000A096E6E00C94B917A0E2B0E0EAE1F3E18D
:102630000C94911769837A838B839C832D833E83CB
:102640004F835887CE010196BE01675F7F4F0E947E
:10265000C016CE010596BE016F5E7F4F0E94C01668
:102660009985923088F089898230C8F0943019F4C5
:10267000823051F404C0843029F4923081F484E033
:1026800091E0C6C0923049F420E09A858A89981377
:1026900021E02A87CE010996BBC0823049F420E0B0
:1026A0009A858A89981321E02A8BCE014196B0C081
:1026B0002D843E844F8458886D887E888F88988CBE
:1026C000EE24FF248701AA24BB24650140E050E0EA
:1026D00060E070E0E0E0F0E0C10181709070892B73
:1026E000E9F0E60CF71C081D191D9A01AB012A0D33
:1026F0003B1D4C1D5D1D80E090E0A0E0B0E0E614C5
:10270000F7040805190520F481E090E0A0E0B0E0AE
:10271000BA01A901480F591F6A1F7B1FAA0CBB1CD5
:10272000CC1CDD1C97FE08C081E090E0A0E0B0E08A
:10273000A82AB92ACA2ADB2A3196E032F10549F0E3
:10274000660C771C881C991C5694479437942794E0
:10275000C3CFFA85EA892B893C898B859C85280F14
:10276000391F2E5F3F4F17C0CA0181709070892BAF
:1027700061F016950795F794E79480E090E0A0E06B
:10278000B0E8E82AF92A0A2B1B2B7695679557950E
:1027900047952F5F3F4F77FDE7CF0CC0440F551F84
:1027A000661F771F17FD4160EE0CFF1C001F111FF5
:1027B00021503040403090E0590790E0690790E4A4
:1027C000790760F32B8F3C8FDB01CA018F77907004
:1027D000A070B07080349105A105B10561F447FD8A
:1027E0000AC0E114F1040105110529F0405C5F4FB6
:1027F0006F4F7F4F40781A8EFE1711F081E08A8F5D
:102800004D8F5E8F6F8F78A383E0898FCE014996BD
:102810000E94EB15A096E2E10C94AD17A8E1B0E0A0
:10282000E4E1F4E10C94991769837A838B839C83A8
:102830002D833E834F835887B9E0EB2EF12CEC0EAD
:10284000FD1ECE010196B7010E94C0168E010F5EDB
:102850001F4FCE010596B8010E94C016298522306F
:1028600008F47EC03989323010F4B8017CC08A8502
:102870009A8989278A87243011F0223031F423176E
:1028800009F06EC064E071E06EC0343039F41D862A
:102890001E861F86188A1C861B8604C0323021F4CF
:1028A00084E08987B7015FC02B853C858B899C8933
:1028B000281B390B3C872B87ED84FE840F851889F4
:1028C000AD88BE88CF88D88CEA14FB040C051D05A2
:1028D00040F4EE0CFF1C001F111F215030403C87BC
:1028E0002B8720E030E040E050E080E090E0A0E086
:1028F000B0E460E070E0EA14FB040C051D0540F054
:10290000282B392B4A2B5B2BEA18FB080C091D09D5
:10291000B695A79597958795EE0CFF1C001F111F84
:102920006F5F7F4F6F31710531F7DA01C9018F7722
:102930009070A070B07080349105A105B10561F46C
:1029400027FD0AC0E114F1040105110529F0205CFE
:102950003F4F4F4F5F4F20782D873E874F87588BD3
:10296000BE01675F7F4FCB010E94EB156896EAE0DE
:102970000C94B517A8E1B0E0E0ECF4E10C949D17DD
:1029800069837A838B839C832D833E834F8358870F
:1029900089E0E82EF12CEC0EFD1ECE010196B70168
:1029A0000E94C0168E010F5E1F4FCE010596B80122
:1029B0000E94C0168985823040F08989823028F0D3
:1029C000C701B8010E94381701C081E06896E6E0AF
:1029D0000C94B917A8E0B0E0E0EFF4E10C949A177A
:1029E0009B01AC0183E08983DA01C9018827B7FD27
:1029F00083959927AA27BB27B82E211531054105B4
:102A0000510519F482E089833AC08823A9F0203067
:102A100080E0380780E0480780E8580729F460E044
:102A200070E080E09FEC30C0EE24FF248701E21AC2
:102A3000F30A040B150B02C079018A018EE1C82E3E
:102A4000D12CDC82CB82ED82FE820F831887C801F5
:102A5000B7010E949C1501971816190684F4082ED8
:102A600004C0EE0CFF1C001F111F0A94D2F7ED8268
:102A7000FE820F831887C81AD90ADC82CB82BA82F9
:102A8000CE0101960E94EB152896E9E00C94B6174A
:102A9000ACE0B0E0EEE4F5E10C94A11769837A8331
:102AA0008B839C83CE010196BE016B5F7F4F0E949A
:102AB000C0168D81823061F1823050F1843021F472
:102AC0008E81882351F12EC02F81388537FD20C09B
:102AD0006E812F3131051CF06623F9F023C08EE1A1
:102AE00090E0821B930B29853A854B855C8504C059
:102AF00056954795379527958A95D2F76623B1F075
:102B000050954095309521953F4F4F4F5F4F0EC0E8
:102B100020E030E040E050E009C02FEF3FEF4FEF02
:102B20005FE704C020E030E040E050E8B901CA01AE
:102B30002C96E2E00C94BD17EF92FF920F931F9337
:102B40007B018C0180E0E81680E0F80681E0080750
:102B500080E0180788F48FEFE816F10401051105ED
:102B600031F028F088E090E0A0E0B0E017C080E00D
:102B700090E0A0E0B0E012C080E0E81680E0F80647
:102B800080E0080781E0180728F088E190E0A0E0E5
:102B9000B0E004C080E190E0A0E0B0E020E230E0EE
:102BA00040E050E0281B390B4A0B5B0B04C0169524
:102BB0000795F794E7948A95D2F7F701E45FFE4F03
:102BC0008081281B310941095109C9011F910F91C9
:102BD000FF90EF900895DF92EF92FF920F931F9373
:102BE000FC01E480F58006811781D18080818230EC
:102BF00048F480E090E0A0E1B0E0E82AF92A0A2B4E
:102C00001B2BA5C0843009F49FC0823021F4EE2430
:102C1000FF24870105C0E114F1040105110519F431
:102C2000E0E0F0E096C0628173819FEF623879073F
:102C30000CF05BC022E83FEF261B370B2A31310531
:102C40002CF020E030E040E050E02AC0B801A701BD
:102C5000022E04C076956795579547950A94D2F74A
:102C600081E090E0A0E0B0E004C0880F991FAA1FA7
:102C7000BB1F2A95D2F70197A109B1098E219F2187
:102C8000A023B1230097A105B10521F081E090E0D8
:102C9000A0E0B0E09A01AB01282B392B4A2B5B2B2B
:102CA000DA01C9018F779070A070B07080349105FF
:102CB000A105B10539F427FF09C0205C3F4F4F4FF4
:102CC0005F4F04C0215C3F4F4F4F5F4FE0E0F0E0AB
:102CD0002030A0E03A07A0E04A07A0E45A0710F02D
:102CE000E1E0F0E079018A0127C06038710564F500
:102CF000FB01E158FF4FD801C7018F779070A0709A
:102D0000B07080349105A105B10539F4E7FE0DC01E
:102D100080E490E0A0E0B0E004C08FE390E0A0E0A9
:102D2000B0E0E80EF91E0A1F1B1F17FF05C016951D
:102D30000795F794E794319687E016950795F794F1
:102D4000E7948A95D1F705C0EE24FF248701EFEFC1
:102D5000F0E06E2F679566276795902F9F77D79441
:102D6000DD24D7948E2F8695492F462B582F5D2929
:102D7000B701CA011F910F91FF90EF90DF90089566
:102D8000FC01DB01408151812281622F6F7770E06D
:102D9000221F2227221F9381892F880F822B282F01
:102DA00030E0991F9927991F11969C93119721152F
:102DB0003105A9F5411551056105710511F482E050
:102DC00037C082E89FEF13969C938E9312979A01D7
:102DD000AB0167E0220F331F441F551F6A95D1F7DF
:102DE00083E08C930DC0220F331F441F551F129692
:102DF0008D919C911397019713969C938E931297A4
:102E0000203080E0380780E0480780E4580758F316
:102E100014962D933D934D935C93179708952F3FF0
:102E2000310579F4411551056105710519F484E006
:102E30008C93089564FF03C081E08C9312C01C92B0
:102E400010C02F57304013963C932E93129783E077
:102E50008C9387E0440F551F661F771F8A95D1F723
:102E6000706414964D935D936D937C9317970895BA
:102E70001F93DC01FB019C91923008F447C08081D4
:102E8000823008F443C0943051F411961C91843080
:102E900099F58181682F70E0611B71093FC0843012
:102EA00021F0923031F48230B9F18181882389F1A7
:102EB0002DC011961C9111978230F1F08181181765
:102EC000D9F412962D913C911397828193818217A8
:102ED000930794F028173907BCF014968D919D91B3
:102EE0000D90BC91A02D24813581468157812817F2
:102EF00039074A075B0718F4112341F00AC082170B
:102F00009307A407B50740F4112319F061E070E0BE
:102F100005C06FEF7FEF02C060E070E0CB011F9152
:102F200008952F923F924F925F926F927F928F926D
:102F30009F92AF92BF92CF92DF92EF92FF920F9348
:102F40001F93CF93DF93CDB7DEB7CA1BDB0B0FB652
:102F5000F894DEBF0FBECDBF09942A88398848880F
:102F60005F846E847D848C849B84AA84B984C884A5
:102F7000DF80EE80FD800C811B81AA81B981CE0F9C
:102F8000D11D0FB6F894DEBF0FBECDBFED01089581
:102F90009F939F77EEE389379E0720F4ECE8F0E0FB
:102FA0001FD109C0D4D09058A2EA2AED3FE049ECE5
:102FB0005FE329D234D10F9007FC9058089521D1B6
:102FC00058F080E891E009F49EEF22D128F040E823
:102FD00051E059F45EEF09C0DBC054C1E92FE0783D
:102FE0002FD168F3092E052AC1F3261737074807A2
:102FF000590738F00E2E07F8E02569F0E025E06467
:103000000AC0EF6307F8009407FADB01B9019D01DC
:10301000DC01CA01AD01EF9341D001D10AD05F912B
:10302000552331F02BED3FE049E450FD49ECCFCA88
:103030000895DF93DD27B92FBF7740E85FE31616C9
:10304000170648075B0710F4D92F23D19F938F935E
:103050007F936F93C8D1E0EAF0E09DD0E0D02F914C
:103060003F914F915F9126D1DD2349F09058A2EA1C
:103070002AED3FE049EC5FE3D0785D27C4D1DF91D2
:10308000CEC0C6D040F0BDD030F021F45F3F19F083
:1030900079C05111F8C07CC0D3D098F39923C9F3FB
:1030A0005523B1F3951B550BBB27AA27621773074E
:1030B000840738F09F5F5F4F220F331F441FAA1F02
:1030C000A9F333D00E2E3AF0E0E830D091505040C2
:1030D000E695001CCAF729D0FE2F27D0660F771F70
:1030E000881FBB1F261737074807AB07B0E809F052
:1030F000BB0B802DBF01FF2793585F4F2AF09E3FE7
:10310000510568F03FC0BFC05F3FECF3983EDCF371
:10311000869577956795B795F7959F5FC9F7880F5F
:10312000911D9695879597F90895E1E0660F771FB1
:10313000881FBB1F621773078407BA0720F0621B42
:10314000730B840BBA0BEE1F88F7E0950895DF939D
:10315000CF931F930F938B01EC01EDECF0E01BD0AC
:103160005ED09801AE018B01EC0160E070E080E878
:103170009FE3FCD9FAD09801AE010F911F91CF9136
:10318000DF9198C097F99F6780E870E060E008954C
:103190009FEF80EC0895DF93CF931F930F93FF92DF
:1031A000EF92DF927B018C01689405C0DA2EEF016B
:1031B00081D0FE01E894A5912591359145915591D5
:1031C000AEF3EF0120D1FE019701A801DA9479F75F
:1031D000DF90EF90FF900F911F91CF91DF910895B5
:1031E0009F938F937F936F93FF93EF939B01AC011A
:1031F0001BDAEF91FF91CFDF2F913F914F915F91BC
:1032000013CA00240A94161617061806090608950C
:1032100000240A9412161306140605060895092EB2
:103220000394000C11F4882352F0BB0F40F4BF2B21
:1032300011F460FF04C06F5F7F4F8F4F9F4F089561
:1032400057FD9058440F551F59F05F3F71F0479557
:10325000880F97FB991F61F09F3F79F0879508953C
:10326000121613061406551FF2CF4695F1DF08C05B
:10327000161617061806991FF1CF86957105610578
:1032800008940895E894BB2766277727CB0197F920
:1032900008959B01AC0160E070E080E89FE3BECA46
:1032A000B0DF28F0B5DF18F0952309F06BCF70CFB1
:1032B0001124E9CFC5DFA0F3959FD1F3950F50E01E
:1032C000551F629FF001729FBB27F00DB11D639FD8
:1032D000AA27F00DB11DAA1F649F6627B00DA11D7E
:1032E000661F829F2227B00DA11D621F739FB00D24
:1032F000A11D621F839FA00D611D221F749F332794
:10330000A00D611D231F849F600D211D822F762F2C
:103310006A2F11249F5750408AF0E1F088234AF029
:10332000EE0FFF1FBB1F661F771F881F9150504075
:10333000A9F79E3F510570F025CFA5CF5F3FECF375
:10334000983EDCF3869577956795B795F795E79561
:103350009F5FC1F7FE2B880F911D9695879597F972
:10336000089511F40EF414CFA1C072DFD0F39923A5
:10337000D9F3CEF39F57550B87FFA6D00024A0E6C4
:1033800040EA900180585695979528F4805C660F26
:10339000771F881F20F026173707480730F4621B75
:1033A000730B840B202931294A2BA6951794079477
:1033B000202531254A2758F7660F771F881F20F0F0
:1033C00026173707480730F4620B730B840B200D68
:1033D000311D411DA09581F7B901842F9158880FA7
:1033E0009695879508959B01AC011EC90ADF30F0C0
:1033F0000FDF20F031F49F3F11F41EF4C9CE0EF41C
:10340000E095E7FBBFCEE92F1BDF80F3BA17620719
:1034100073078407950718F071F49EF533CF0EF407
:10342000E0950B2EBA2FA02D0B01B90190010C01D4
:10343000CA01A0011124FF27591B99F0593F50F4EC
:10344000503E68F11A16F040A22F232F342F442744
:10345000585FF3CF469537952795A795F04053953C
:10346000C9F77EF41F16BA0B620B730B840BBAF00C
:103470009150A1F0FF0FBB1F661F771F881FC2F777
:103480000EC0BA0F621F731F841F48F4879577958B
:103490006795B795F7959E3F08F0B3CF9395880F42
:1034A00008F09927EE0F9795879508959F3F31F083
:1034B000915020F4879577956795B795880F911D62
:1034C0009695879597F9089591505040660F771F0C
:0A34D000881FD2F70895F894FFCF8B
:1034DA000000803F0000000000000000000102021E
:1034EA000303030304040404040404040505050592
:1034FA00050505050505050505050505060606066E
:10350A000606060606060606060606060606060651
:10351A00060606060606060606060606070707073D
:10352A000707070707070707070707070707070721
:10353A000707070707070707070707070707070711
:10354A000707070707070707070707070707070701
:10355A0007070707070707070707070708080808ED
:10356A0008080808080808080808080808080808D1
:10357A0008080808080808080808080808080808C1
:10358A0008080808080808080808080808080808B1
:10359A0008080808080808080808080808080808A1
:1035AA000808080808080808080808080808080891
:1035BA000808080808080808080808080808080881
:1035CA000808080808080808080808080808080871
:0C35DA0008080808080808080808080885
:00000001FF
